{
  "contractName": "SwapAly",
  "abi": [
    {
      "inputs": [
        {
          "internalType": "contract TokenAly",
          "name": "_tokenAlyAddress",
          "type": "address"
        }
      ],
      "payable": false,
      "stateMutability": "nonpayable",
      "type": "constructor"
    },
    {
      "anonymous": false,
      "inputs": [
        {
          "indexed": true,
          "internalType": "address",
          "name": "from",
          "type": "address"
        },
        {
          "indexed": true,
          "internalType": "address",
          "name": "to",
          "type": "address"
        },
        {
          "indexed": false,
          "internalType": "uint256",
          "name": "amount",
          "type": "uint256"
        }
      ],
      "name": "AlySold",
      "type": "event"
    },
    {
      "constant": true,
      "inputs": [],
      "name": "getOwner",
      "outputs": [
        {
          "internalType": "address",
          "name": "",
          "type": "address"
        }
      ],
      "payable": false,
      "stateMutability": "view",
      "type": "function"
    },
    {
      "constant": true,
      "inputs": [],
      "name": "getTokenAlyAddress",
      "outputs": [
        {
          "internalType": "contract TokenAly",
          "name": "",
          "type": "address"
        }
      ],
      "payable": false,
      "stateMutability": "view",
      "type": "function"
    },
    {
      "constant": false,
      "inputs": [
        {
          "internalType": "address",
          "name": "A",
          "type": "address"
        },
        {
          "internalType": "address",
          "name": "B",
          "type": "address"
        },
        {
          "internalType": "uint8",
          "name": "price",
          "type": "uint8"
        }
      ],
      "name": "buyAly",
      "outputs": [
        {
          "internalType": "bool",
          "name": "",
          "type": "bool"
        }
      ],
      "payable": true,
      "stateMutability": "payable",
      "type": "function"
    }
  ],
  "bytecode": "0x608060405234801561001057600080fd5b506040516104d83803806104d88339818101604052602081101561003357600080fd5b810190808051906020019092919050505080600160006101000a81548173ffffffffffffffffffffffffffffffffffffffff021916908373ffffffffffffffffffffffffffffffffffffffff160217905550336000806101000a81548173ffffffffffffffffffffffffffffffffffffffff021916908373ffffffffffffffffffffffffffffffffffffffff16021790555050610403806100d56000396000f3fe6080604052600436106100345760003560e01c806365740c2014610039578063893d20e814610090578063af362bf0146100e7575b600080fd5b34801561004557600080fd5b5061004e610170565b604051808273ffffffffffffffffffffffffffffffffffffffff1673ffffffffffffffffffffffffffffffffffffffff16815260200191505060405180910390f35b34801561009c57600080fd5b506100a561019a565b604051808273ffffffffffffffffffffffffffffffffffffffff1673ffffffffffffffffffffffffffffffffffffffff16815260200191505060405180910390f35b610156600480360360608110156100fd57600080fd5b81019080803573ffffffffffffffffffffffffffffffffffffffff169060200190929190803573ffffffffffffffffffffffffffffffffffffffff169060200190929190803560ff1690602001909291905050506101c3565b604051808215151515815260200191505060405180910390f35b6000600160009054906101000a900473ffffffffffffffffffffffffffffffffffffffff16905090565b60008060009054906101000a900473ffffffffffffffffffffffffffffffffffffffff16905090565b600080341161023a576040517f08c379a00000000000000000000000000000000000000000000000000000000081526004018080602001828103825260118152602001807f756e737566696369656e742076616c756500000000000000000000000000000081525060200191505060405180910390fd5b60008260ff1634029050600160009054906101000a900473ffffffffffffffffffffffffffffffffffffffff1673ffffffffffffffffffffffffffffffffffffffff166323b872dd8686846040518463ffffffff1660e01b8152600401808473ffffffffffffffffffffffffffffffffffffffff1673ffffffffffffffffffffffffffffffffffffffff1681526020018373ffffffffffffffffffffffffffffffffffffffff1673ffffffffffffffffffffffffffffffffffffffff1681526020018281526020019350505050602060405180830381600087803b15801561032157600080fd5b505af1158015610335573d6000803e3d6000fd5b505050506040513d602081101561034b57600080fd5b8101908080519060200190929190505050508373ffffffffffffffffffffffffffffffffffffffff168573ffffffffffffffffffffffffffffffffffffffff167fa70c823abd164a0d3d905781ca61f90c6ee9847ce3123984c55ecd3c056d43a4836040518082815260200191505060405180910390a36001915050939250505056fea265627a7a72315820a8c7cd3c697b92f60d6ceb0ce54167f5b3553d7a683b948636508a9cc9a2576c64736f6c634300050c0032",
  "source": "pragma solidity 0.5.12;\n\nimport \"./TokenAly.sol\";\nimport \"./SafeMath.sol\";\n\ncontract SwapAly{\n    address private _owner;\n    TokenAly private tokenAly;\n\n    constructor (TokenAly _tokenAlyAddress) public {\n        tokenAly = _tokenAlyAddress;\n        _owner = msg.sender;\n    }\n\n    event AlySold(address indexed from, address indexed to, uint256 amount);\n\n    function getOwner() external view returns(address){\n        return _owner;\n    }\n\n    function getTokenAlyAddress() external view returns(TokenAly){\n        return tokenAly;\n    }\n\n    function buyAly(address A, address B, uint8 price) external payable returns(bool){\n        require(msg.value > 0,\"unsuficient value\");\n        uint256 amountAly = msg.value * price; \n        //tokenAly.approve(B, amountAly);\n        tokenAly.transferFrom(A, B, amountAly);\n        emit AlySold(A, B, amountAly);\n        return true;\n    }\n}",
  "sourcePath": "/home/bobby/test_new/contracts/SwapAly.sol",
  "compiler": {
    "name": "solc",
    "version": "0.5.12+commit.7709ece9.Emscripten.clang"
  },
  "schemaVersion": "3.0.19",
  "updatedAt": "2019-12-18T21:40:45.875Z",
  "networkType": "ethereum",
  "devdoc": {
    "methods": {}
  },
  "userdoc": {
    "methods": {}
  }
}