{
  "contractName": "SwapAly",
  "abi": [
    {
      "inputs": [],
      "payable": false,
      "stateMutability": "nonpayable",
      "type": "constructor"
    },
    {
      "anonymous": false,
      "inputs": [
        {
          "indexed": true,
          "internalType": "address",
          "name": "from",
          "type": "address"
        },
        {
          "indexed": true,
          "internalType": "address",
          "name": "to",
          "type": "address"
        },
        {
          "indexed": false,
          "internalType": "uint256",
          "name": "amountSold",
          "type": "uint256"
        },
        {
          "indexed": false,
          "internalType": "uint256",
          "name": "amountBought",
          "type": "uint256"
        }
      ],
      "name": "TokenExchanged",
      "type": "event"
    },
    {
      "constant": false,
      "inputs": [
        {
          "internalType": "address",
          "name": "newOwner",
          "type": "address"
        }
      ],
      "name": "transferOwnership",
      "outputs": [],
      "payable": false,
      "stateMutability": "nonpayable",
      "type": "function"
    },
    {
      "constant": true,
      "inputs": [],
      "name": "getOwner",
      "outputs": [
        {
          "internalType": "address",
          "name": "",
          "type": "address"
        }
      ],
      "payable": false,
      "stateMutability": "view",
      "type": "function"
    },
    {
      "constant": false,
      "inputs": [
        {
          "internalType": "address",
          "name": "sellerAddress",
          "type": "address"
        },
        {
          "internalType": "address",
          "name": "sellerTokenAddress",
          "type": "address"
        },
        {
          "internalType": "uint256",
          "name": "amountSeller",
          "type": "uint256"
        },
        {
          "internalType": "address",
          "name": "buyerAddress",
          "type": "address"
        },
        {
          "internalType": "address",
          "name": "buyerTokenAddress",
          "type": "address"
        },
        {
          "internalType": "uint256",
          "name": "amountBuyer",
          "type": "uint256"
        }
      ],
      "name": "swapToken",
      "outputs": [
        {
          "internalType": "bool",
          "name": "",
          "type": "bool"
        }
      ],
      "payable": false,
      "stateMutability": "nonpayable",
      "type": "function"
    }
  ],
  "bytecode": "0x608060405234801561001057600080fd5b50336000806101000a81548173ffffffffffffffffffffffffffffffffffffffff021916908373ffffffffffffffffffffffffffffffffffffffff1602179055506105f5806100606000396000f3fe608060405234801561001057600080fd5b50600436106100415760003560e01c8063893d20e814610046578063ed563f8e14610090578063f2fde38b14610160575b600080fd5b61004e6101a4565b604051808273ffffffffffffffffffffffffffffffffffffffff1673ffffffffffffffffffffffffffffffffffffffff16815260200191505060405180910390f35b610146600480360360c08110156100a657600080fd5b81019080803573ffffffffffffffffffffffffffffffffffffffff169060200190929190803573ffffffffffffffffffffffffffffffffffffffff16906020019092919080359060200190929190803573ffffffffffffffffffffffffffffffffffffffff169060200190929190803573ffffffffffffffffffffffffffffffffffffffff169060200190929190803590602001909291905050506101cd565b604051808215151515815260200191505060405180910390f35b6101a26004803603602081101561017657600080fd5b81019080803573ffffffffffffffffffffffffffffffffffffffff16906020019092919050505061047d565b005b60008060009054906101000a900473ffffffffffffffffffffffffffffffffffffffff16905090565b60008060009054906101000a900473ffffffffffffffffffffffffffffffffffffffff1673ffffffffffffffffffffffffffffffffffffffff163373ffffffffffffffffffffffffffffffffffffffff1614610274576040517f08c379a00000000000000000000000000000000000000000000000000000000081526004018080602001828103825260218152602001806105a06021913960400191505060405180910390fd5b600086905060008490508173ffffffffffffffffffffffffffffffffffffffff1663a9059cbb87896040518363ffffffff1660e01b8152600401808373ffffffffffffffffffffffffffffffffffffffff1673ffffffffffffffffffffffffffffffffffffffff16815260200182815260200192505050602060405180830381600087803b15801561030557600080fd5b505af1158015610319573d6000803e3d6000fd5b505050506040513d602081101561032f57600080fd5b8101908080519060200190929190505050508073ffffffffffffffffffffffffffffffffffffffff1663a9059cbb8a866040518363ffffffff1660e01b8152600401808373ffffffffffffffffffffffffffffffffffffffff1673ffffffffffffffffffffffffffffffffffffffff16815260200182815260200192505050602060405180830381600087803b1580156103c857600080fd5b505af11580156103dc573d6000803e3d6000fd5b505050506040513d60208110156103f257600080fd5b8101908080519060200190929190505050508573ffffffffffffffffffffffffffffffffffffffff168973ffffffffffffffffffffffffffffffffffffffff167f69b4f7d081ba8c7a13dc0ad819546a7aff7bd67d69d55c1824935fce9f26178c8987604051808381526020018281526020019250505060405180910390a350509695505050505050565b6000809054906101000a900473ffffffffffffffffffffffffffffffffffffffff1673ffffffffffffffffffffffffffffffffffffffff163373ffffffffffffffffffffffffffffffffffffffff1614610522576040517f08c379a00000000000000000000000000000000000000000000000000000000081526004018080602001828103825260218152602001806105a06021913960400191505060405180910390fd5b600073ffffffffffffffffffffffffffffffffffffffff163373ffffffffffffffffffffffffffffffffffffffff16141561055c57600080fd5b806000806101000a81548173ffffffffffffffffffffffffffffffffffffffff021916908373ffffffffffffffffffffffffffffffffffffffff1602179055505056fe4f6e6c79206f776e65722063616e2063616c6c20746869732066756e6374696f6ea265627a7a72315820f28df0ae6fcbbde566b9089ba5f39246170f152ac1f476736e56e2b40623a88b64736f6c634300050c0032",
  "source": "pragma solidity 0.5.12;\n\nimport \"./SafeMath.sol\";\nimport \"./TokenERC20Aly.sol\";\nimport \"./TokenERC20Dai.sol\";\n\n/// @title Cryptogama swap contract\n/// @author Raphael Pinto Gregorio\n/// @notice Use this contract to swap ERC-20 tokens\n/// @dev The owner of this contract need to get the approval from both token owners to be able to proceed the swap\ncontract SwapAly{\n    address private _owner;\n    uint256 private _sellerAllowance;\n\n    event TokenExchanged(address indexed from, address indexed to, uint256 amountSold, uint256 amountBought);\n\n    constructor () public {\n        _owner = msg.sender;\n    }\n\n    modifier ownerOnly() {\n        require(msg.sender == _owner, \"Only owner can call this function\");\n        _;\n    }\n\n    function transferOwnership(address newOwner) external ownerOnly {\n        require(msg.sender != address(0));\n        _owner = newOwner;\n    }\n\n    /// @author Raphael Pinto Gregorio\n    /// @notice return contract owner\n    /// @dev basic function\n    /// @return contract owner address\n    function getOwner() external view returns(address){\n        return _owner;\n    }\n\n    /// @author Raphael Pinto Gregorio\n    /// @notice perform tokens swap between two owners \n    /// @dev swap tokens, owner of swap contract need the approval of both token owners, emit an event called TokenExchanged\n    /// @param sellerAddress the address of the seller, sellerTokenAddress the address of the seller ERC-20, amountSeller the amount the seller wants to exchange, buyerAddress the buyer address, buyerTokenAddress the adress of the buyer ERC-20, amountBuyer the amount to be exchanged\n    /// @return an event TokenExchanged containing the seller address, the buyer address, the amount sold and the amount bought in this order\n    function swapToken(address sellerAddress, address sellerTokenAddress, uint256 amountSeller,  address buyerAddress, address buyerTokenAddress, uint256 amountBuyer) external ownerOnly returns(bool){\n        TokenERC20Aly TokenSell = TokenERC20Aly(sellerTokenAddress);\n        TokenERC20Dai TokenBuy = TokenERC20Dai(buyerTokenAddress);\n\n        TokenSell.transfer(buyerAddress, amountSeller);\n        TokenBuy.transfer(sellerAddress, amountBuyer);\n\n        emit TokenExchanged(sellerAddress, buyerAddress, amountSeller, amountBuyer);\n    }\n}",
  "sourcePath": "/home/bobby/cryptogama11_DOB/contracts/SwapAly.sol",
  "compiler": {
    "name": "solc",
    "version": "0.5.12+commit.7709ece9.Emscripten.clang"
  },
  "schemaVersion": "3.0.19",
  "updatedAt": "2020-02-28T18:58:50.651Z",
  "devdoc": {
    "author": "Raphael Pinto Gregorio",
    "details": "The owner of this contract need to get the approval from both token owners to be able to proceed the swap",
    "methods": {
      "getOwner()": {
        "author": "Raphael Pinto Gregorio",
        "details": "basic function",
        "return": "contract owner address"
      },
      "swapToken(address,address,uint256,address,address,uint256)": {
        "author": "Raphael Pinto Gregorio",
        "details": "swap tokens, owner of swap contract need the approval of both token owners, emit an event called TokenExchanged",
        "params": {
          "sellerAddress": "the address of the seller, sellerTokenAddress the address of the seller ERC-20, amountSeller the amount the seller wants to exchange, buyerAddress the buyer address, buyerTokenAddress the adress of the buyer ERC-20, amountBuyer the amount to be exchanged"
        },
        "return": "an event TokenExchanged containing the seller address, the buyer address, the amount sold and the amount bought in this order"
      }
    },
    "title": "Cryptogama swap contract"
  },
  "userdoc": {
    "methods": {
      "getOwner()": {
        "notice": "return contract owner"
      },
      "swapToken(address,address,uint256,address,address,uint256)": {
        "notice": "perform tokens swap between two owners "
      }
    },
    "notice": "Use this contract to swap ERC-20 tokens"
  }
}